:100000000EC033C014C013C012C061C010C00FC0F6
:100010000EC00DC00CC00BC00AC009C008C011241E
:100020001FBECFE5D1E0DEBFCDBF02D063C0E8CFB9
:10003000479A1ABC81E083BFB99A82EE80BF89B724
:10004000826089BF85B7816085BF8BB780648BBFB5
:10005000C29A2BE088E190E00FB6F894A89581BD94
:100060000FBE21BD7894A895FECF22B708B601FE39
:1000700002C027FF2FEF442D942D80E0BC01620FBA
:10008000711D9B01B29B15C0CB018C199D0997FF77
:1000900003C0909581959F4F8037910510F06901BD
:1000A0004DBD12BE442408B601FE10C082E088BFD8
:1000B0000DC0CB018E199F0997FF03C090958195C4
:1000C0009F4F8037910510F079014EBD1895842D12
:1000D0008E3F10F443940DC0B29B03C08EEF8EBDD3
:1000E00001C01EBC8EEF8DBD4424CC24DD24EE2443
:0800F000FF241895F894FFCFDE
:00000001FF
